:100000000200CBE5836003E49322A882E622E58325
:100010006004E4938003A882E6F822E5836004E4A8
:10002000938003A882E6F922E5836004E4938003C9
:10003000A882E6FA22E5836004E4938003A882E6BE
:10004000FB22E5836004E4938003A882E6FC22E5BA
:10005000836004E4938003A882E6FD22E5836004C4
:10006000E4938003A882E6FE22E5836004E49380A3
:1000700003A882E6FF22898288838B00EC4D6036DC
:10008000E4E0F608A31DBDFFF31C80F0B800118B5F
:1000900000EC4D6021E7F609081DBDFFF41C80F15E
:1000A000898288838B00EC4D600CE493F608A31DD5
:1000B000BDFFF31C80F022E4F5D075813578207AFD
:0E00C00015F608DAFC1202E60200000200B794
:1001000000B200A000B900A031313100020289E440
:10011000F524F525E4F526F5277528048A318B3278
:100120008C338D34780179007A007B297D087C003E
:1001300012008C75808075A00175A000E52825341B
:10014000FDE43533FCC3E5329D8CF063F080E5318E
:10015000648095F0500280030201EBE5282534FF0E
:10016000E43533FEEFC39532FDEE9531FC7405C3E3
:100170009DF52574009CF524E52524FCE52434FF39
:100180005002800280028047E527B53207E526B598
:1001900031028002800280370527E527700205269C
:1001A000A824A925E9C333F9E833F87429292401DF
:1001B000F9878075A00375A0020525E52570020565
:1001C00024E52524FCE52434FF5002800280B9E5B3
:1001D000282534FFE43533FEEFC39532FDEE95312B
:1001E000FCED24FFF525EC34FFF5248029E527B547
:1001F0003207E526B5310280028002802B0527E513
:10020000277002052675800675A00375A0020525D6
:10021000E52570020524E533B52407E534B525024C
:1002200080065002800280C5E4F524F525E52524EA
:10023000FCE52434FF5002800280028047E527B5A8
:100240003207E526B531028002800280370527E5B6
:100250002770020526A824A925E9C333F9E833F855
:100260007429292401F9878075A00375A00205254A
:10027000E52570020524E52524FCE52434FF500221
:10028000800280B9D007D00622C006C00702010F45
:1002900080527522017523087580C075A00175A074
:1002A00000E4F520F521E52124F8E52034FF500293
:1002B00080028002802DE5212523F582E52035226C
:1002C000F583120003F58075A00375A0020521E5F2
:1002D0002170020520E52124F8E52034FF5002803A
:1002E0000280D32280AC8048E4F520F521752200FD
:1002F00075231075803875A00175A000AA22AB2364
:10030000AC20AD2112010CC3E52195238522F063B9
:10031000F080E520648095F050028002800A05217B
:10032000E521700205208005E4F520F52180CD222D
:0203300080B695
:00000001FF
